:020000040800F2
:10000000F0040020D90100081D1600086D15000835
:1000100019160008F1020008B918000800000000D5
:100020000000000000000000000000007116000841
:1000300025030008000000002116000875160008BE
:10004000F3010008F3010008F3010008F3010008C0
:10005000F3010008F3010008F3010008F3010008B0
:10006000F3010008F3010008F3010008F3010008A0
:10007000F3010008F3010008F3010008F301000890
:10008000F3010008F3010008F3010008F301000880
:10009000F3010008F3010008F3010008F301000870
:1000A000F3010008F3010008F3010008F301000860
:1000B000F3010008F3010008F3010008F301000850
:1000C000F3010008F3010008F3010008F301000840
:1000D000F3010008F3010008F3010008F301000830
:1000E000F3010008F3010008F3010008F301000820
:1000F000F3010008F3010008F3010008F301000810
:10010000F3010008F3010008F3010008F3010008FF
:10011000F3010008F3010008F3010008F3010008EF
:10012000F3010008F3010008F3010008F3010008DF
:10013000F30100080000000000000000F3010008C7
:10014000F3010008F3010008F3010008F3010008BF
:10015000F3010008F3010008F3010008F3010008AF
:10016000F3010008F3010008F3010008F30100089F
:10017000F3010008F3010008F3010008000000008B
:1001800000000000F3010008000000000000000073
:10019000F30100080000000000000000F301000867
:1001A000000000000000000000000000F301000853
:1001B000F3010008F3010008F3010008F30100084F
:1001C000F3010008DFF80CD000F07AF8004800478F
:1001D000BD180008F0040020064880470648004784
:1001E000FEE7FEE7FEE7FEE7FEE7FEE7FEE7FEE7E7
:1001F000FEE7FEE779160008C50100082DE9F05F6B
:100200000546002092469B46884606468146402485
:100210001BE0284641464746224600F041F8534637
:100220005A46C01A914110D311461846224600F092
:1002300028F82D1A67EB01084F46224601200021BD
:1002400000F01FF817EB00094E41201EA4F1010435
:10025000DFDC484631462A464346BDE8F09FD2B22D
:1002600001E000F8012B491EFBD270470022F6E79F
:1002700010B513460A4604461946FFF7F0FF20461C
:1002800010BD202A04DB203A00FA02F1002070475A
:100290009140C2F1200320FA03F3194390407047C4
:1002A000202A04DB203A21FA02F00021704721FACB
:1002B00002F3D040C2F12002914008431946704732
:1002C0001CB509480090094801900546009C06E0CD
:1002D000E06840F0010394E8070098471034AC420E
:1002E000F6D3FFF773FF0000581B0008781B0008C7
:1002F000FEE70000002818BF002901D1704700BFA9
:1003000080B586B00191012102910021CDE9031150
:10031000059101A900F096FA06B0BDE8804070474B
:10032000012070477047000070B581B00022009234
:1003300090F83C20012A03D1022001B070BD00BF1B
:10034000D1F800E00122BEF10A0F1FFA8EFC80F8FE
:100350003C2009D34FEA4C02036812FA8EF2A2F154
:100360001E0403F10C0204E003680EEB4E0403F1DB
:10037000100207251668A54026EA050515608D6858
:10038000166805FA04F4344314604968062907D84E
:1003900001EB81014A1F194651F8345F0FE000BF9D
:1003A0000C2901EB810105D8A1F12302194651F86E
:1003B000305F04E0A1F14102194651F82C5F1F247F
:1003C000944025EA04040C600CFA02F20C6842F234
:1003D000043CC4F2010C2243ACF54174A3420A6010
:1003E00006D0002180F83C10002001B070BD00BF95
:1003F0001221BEF1110FC1F2000118BF8E453BD191
:10040000DCF800208E4522F48002CCF80020DCF8D5
:10041000002042F40002CCF80020E2D140F20801B2
:10042000C2F2000109684DF68362C4F21B32A1FBDF
:100430000212910C01EB8101490000910099002901
:10044000CFD000BF00990139009100990029C8D090
:1004500000990139009100990029C2D00099013911
:10046000009100990029BCD00099013900910099B0
:100470000029E7D1B5E700BFBEF1120FB1D1DCF81A
:10048000001021F40001CCF80010DCF8001041F459
:100490008001CCF80010A4E70068C06C7047000031
:1004A000002804BF0120704710B5016C00293DD021
:1004B000016CC90645D4016C41F20212914302312C
:1004C00042F204320164C4F20102116821F44031A5
:1004D0001160136890E812102343D0F810E0136005
:1004E0004A68012422F480724A604A68C0F60074A7
:1004F00042EA0E224A604A6822F040724A604A6824
:1005000042EA0C024A608A6822F400628A60C26889
:100510008B681A438A60826A8B68A24223F07063F8
:100520008B608B6810D123F0405216E0044600F037
:1005300065F820460021616484F83C10016CC9060E
:10054000B9D5012153E000BF1A438A608A6822F0BE
:1005500040528A60C26A8B681A438A608A6822F0B5
:1005600002028A608A68037E90F8204042EA4302D1
:100570008A604A6884B142F400624A604A684EF276
:10058000000322F460424A60426ACFF6FF734C686F
:1005900003EB4232224301E022F400624A60CA6A5D
:1005A00040F2000C22F47002CA62C3694269CFF6BD
:1005B000F07CCC6A0CEB03532343CB628B6823F4AF
:1005C00000738B6090F830308C6844EA43238B6072
:1005D0008B6823F480638B608B6843EA82228A6095
:1005E00000214164026C012363F3010202640022D2
:1005F00080F83C20BDE810400846704780B586B0C2
:1006000042F200010068C4F2010100228842059212
:10061000CDE903220292019202D006B080BD00BF54
:1006200043F630000092C4F20200436943F4807341
:100630004361436903F480730093009B0092036855
:1006400043F001030360006800F00100009000988F
:10065000802001900320CDE9020201F5604001A94C
:1006600000F0F0F806B080BD10B50446006881685F
:10067000490544BF80685FEAC05027D400F0B8F94C
:1006800020686FF012010160216C41F40071216457
:10069000816811F0405F01D0002010BD217E00294B
:1006A000FAD1C16A11F4700F02D080684005F3D40A
:1006B000206C20F480702064206CC004ECD4206C8A
:1006C00040F001002064002010BD00BF206C40F00D
:1006D00020002064002084F83C00012010BD0000B0
:1006E00010B581B00021009190F83C10012903D190
:1006F000022001B010BD00BF0468012180F83C1049
:10070000214651F8083FDB0712D10B684DF6836292
:1007100043F001030B6040F20803C2F200031B68C0
:10072000C4F21B32A3FB02239A0C02EB420200929A
:100730000A68036CD2070BD143F01001016400F189
:10074000440101200A6810430860002001B010BD78
:1007500040F2017223EA020202F5807202646268CA
:10076000520504D5026C012363F30D320264026C5E
:100770004FF0000E0023D20444BF426C22F0060367
:1007800042F2043C436480F83CE06FF02200C4F283
:10079000010C2060DCF80000C0060DD0ACF5417003
:1007A00084422BD14FF60450CFF6FF705CF8000066
:1007B00010F0405F22D125E042F20000C4F20100B7
:1007C000844217D042F20020C4F2010084420DD0CE
:1007D00042F20010C4F2010084420FD1DCF80000A4
:1007E000C00607D0ACF58270844207D1DCF8000067
:1007F000C00603D4086810F0405F03D0002001B0A9
:1008000010BD00BF4FF080409CE7000090F83C1006
:10081000012904BF0220704701688A6822F00102A2
:100820008A608968C90705D1016C41F201129143C0
:1008300001310164002180F83C1000207047000065
:1008400000F0D6B82DE9F04F83B000F1200200F19E
:100850003E4741F60005009207F1FF77C4F202051A
:1008600007224FEAB726A84208BF062200254FF00C
:1008700000084FF00009062E38BF4FEAB722019258
:100880000AE000BF09F1010908F10208B9F1100FEF
:1008900005F1040500F0A2800F68012202FA09FEAA
:1008A00017EA0E0AEED0D1F804C003220CF00307B9
:1008B0007E1E02FA08F4012E6FEA040B12D8846837
:1008C000CE6804EA0B0406FA08F6344384604468F0
:1008D00024EA0E06CCF3001404FA09F42643466019
:1008E00004E000BF032F01D103271EE0C6688C6817
:1008F00006EA0B0604FA08F42643022FC66014D158
:100900006FF00302009E02EA590756F807C005F08F
:100910001C040F220B69A2402CEA0202A3401A43D6
:10092000F251D1F804C00CF00307026807FA08F38B
:1009300002EA0B021A431CF4403F0260A2D00022DC
:1009400043F644030292C4F202031A6843F60044D9
:1009500042F480421A601A68C4F2010402F4804230
:100960000292029A29F003024FF6084C2244CFF675
:10097000FF7C52F80C3005F00C070F26BE40B34345
:10098000019E06FA07F73B4342F80C30A2684B6819
:1009900042EA0A0743F60C4CDE0258BF22EA0A0775
:1009A000A760C4F2010CDCF800209E0242EA0A07AC
:1009B00058BF22EA0A07CCF8007062689E0342EA38
:1009C0000A0758BF22EA0A0767602268DB0342EA87
:1009D0000A0758BF22EA0A07276053E703B0BDE8B9
:1009E000F08F0000002A08BF0904816170470000F1
:1009F00040F2E800C2F200000068704740F20000D8
:100A000040F2E801C2F20000C2F2000100780A6878
:100A1000104408607047000080B543F60040C4F2FF
:100A20000200016841F400710160016841F48061D5
:100A30000160016841F480710160032000F076F8E4
:100A4000002000F005F800F027F8002080BD00002D
:100A500070B540F20006C2F2000640F2080132789A
:100A6000C2F200014FF47A730968B3FBF2F2044654
:100A7000B1FBF2F1084600F083FB0F2C4FF00105AB
:100A800008D838B94FF0FF3021460022002500F089
:100A900021F87460284670BD82B0002043F6400102
:100AA0000190C4F202014A6842F480424A604A68F6
:100AB00002F480420192019A0090086840F0805050
:100AC0000860086800F0805000900098072002B08D
:100AD00000F02CB810B54EF60C5CCEF2000CDCF831
:100AE0000030C3F3022E8EF00704042C28BF042428
:100AF000BEF103034FF0FF3E0EFA04F438BF0023AB
:100B0000A14399400EFA03F39A43114300F00F02F8
:100B100000F160430901043A03F56443624400288C
:100B200048BF02F10C03197010BD00004EF60C51C5
:100B3000CEF200010A684FF6FF031A4060F30A2262
:100B400042F0806040F0FD7008607047002804BFEC
:100B5000012070472DE9F04143F60808C4F202086D
:100B60000446D8F8F8030D4600F00F00884207D27B
:100B700088F8F853D8F8F80300F00F00A84277D1AE
:100B80002068810717D5410705D5D8F8001041F432
:100B9000E051C8F80010010705D5D8F8001041F45D
:100BA0006041C8F80010D8F80010A26821F0F001E8
:100BB0001143C8F80010C00740D1D8F8F80300F07E
:100BC0000F00A84207D988F8F853D8F8F80300F0C6
:100BD0000F00A8424CD12068410707D5D8F8001073
:100BE000E26821F4E0511143C8F80010000708D56D
:100BF000D8F80000216920F4604040EAC100C8F83C
:100C0000000000F07DF8D8F8001041F64032C1F342
:100C10000311C0F60002515C40F2080220FA01F113
:100C200040F20400C2F200000068C2F2000211604B
:100C3000FFF70EFF0020BDE8F08100BF6068811E55
:100C4000022907D258F8081C89015CBF0120BDE8C1
:100C5000F08111E0012807D158F8081C89035CBF16
:100C60000120BDE8F08107E058F8081C890703D48B
:100C70000120BDE8F08100BFD8F8001021F0030189
:100C80000843C8F80000FFF7B3FE064641F2883774
:100C9000D8F80000616800F00C00B0EB810F8CD038
:100CA000FFF7A6FE801BB842F2D90320BDE8F08111
:100CB00040F2080043F60801C2F20000C4F202014B
:100CC0000068096841F65032C1F38221C0F6000283
:100CD000515CC8407047000040F2080043F608012C
:100CE000C2F20000C4F202010068096841F6503205
:100CF000C1F34231C0F60002515CC84070470000A9
:100D000010B543F60404C4F202046068C0F3810124
:100D100042F20040C0F2F400DFE801F0420208189D
:100D200041F20020C0F27A0010BD00BF216801F03E
:100D30003F02216823684902C3F3881116D4A1FB3E
:100D400000010023FFF75AFA17E000BF216801F005
:100D50003F02216823684902C3F3881114D4A1FB20
:100D600000010023FFF74AFA15E000BF41F200201E
:100D7000C0F27A004843B0FBF2F021680222C1F3CE
:100D8000014102EB410109E041F20020C0F27A008A
:100D90004843B0FBF2F02168C1F30271B0FBF1F0FF
:100DA00010BD0000002804BF012070472DE9F0416C
:100DB00082B00446007843F60006C007C4F202067B
:100DC0000CD0B06800F00C00042840F08980306836
:100DD000800303D56068002800F0508120788007E8
:100DE00023D5B06810F00C0F11D0B06800F00C00E3
:100DF000082802D17068400209D5B06800F00C00E4
:100E00000C2840F09F807068400200F19B803068A1
:100E1000800703D5E068012840F0308130682169FF
:100E200020F0F80040EAC10030602078000713D4B9
:100E3000207840072AD4A569002D00F01A81B068F7
:100E400000F00C00082840F0AB80012D40F0E88055
:100E5000012002B0BDE8F0816069002840F2000086
:100E6000C4F2472000F088800121C0F8801EFFF7FF
:100E7000BFFD0546706F8007DAD4FFF7B9FD401B50
:100E80000228F7D9032002B0BDE8F081306C5FEA98
:100E9000C0080AD400200190306C40F080503064CB
:100EA000306C00F080500190019847F20007C4F2C6
:100EB00000073868C00537D4386840F4807038605F
:100EC000FFF796FD054600BF3868C0052CD4FFF734
:100ED0008FFD401B0228F7D9032002B0BDE8F08146
:100EE000B06800F00C00082803D1706840023FF59C
:100EF0006EAFB06800F00C000C2803D1706840029F
:100F00003FF565AF61683068B1F5803F07D0B1F556
:100F1000A02F40F0CB8040F480203060306840F457
:100F200080303060CBE000BFA168306F012905D070
:100F3000052957D140F004003067306F40F00100C0
:100F4000306759E0E068002800F09C800020C4F27F
:100F5000472001210160FFF74BFD054630688007FF
:100F60003FF55CAFFFF744FD401B02284FF0030044
:100F7000F4D902B0BDE8F0810021C0F8801EFFF76F
:100F800037FD0546706F80077FF552AFFFF730FDE4
:100F9000401B0228F6D9032002B0BDE8F08100BF53
:100FA0000027C4F2472700203866FFF721FD022DF5
:100FB00005460BD13068800140F19280FFF718FDA3
:100FC000401B02284FF00300F4D9D2E730688001BB
:100FD0004FD5FFF70DFD401B02284FF00300F5D958
:100FE000C7E700BF20F001003067306F002920F014
:100FF0000400306700F09880FFF7FAFC054641F2E4
:10100000883700BF306F800700F1A080FFF7F0FC49
:10101000401BB842F6D9032002B0BDE8F08100BF02
:101020007068E16900F480028A4227D1216A00F0E9
:101030003F028A4222D147F6C071626A0140B1EB99
:10104000821F1BD1A16A4FF6FF73C903994300F4B5
:101050004032A1F580318A4210D1E16A00F070621D
:10106000B2EB016F0AD1216B00F0E040B0EB017FE1
:1010700004D1002002B0BDE8F08100BF012002B021
:10108000BDE8F0810020C4F2472000210160FFF795
:10109000AFFC0546306880077FF5C7AEFFF7A8FCB8
:1010A000401B02284FF00300F4D962E720F480309F
:1010B00030603068002920F48020306050D0FFF785
:1010C00097FC0546306880033FF588AEFFF790FC3B
:1010D000401B6428F6D9032002B0BDE8F08100BFB0
:1010E00004F11C052FCD246B084340EA8210D9037C
:1010F0004FF6FF729143A1F5803140EA0560084345
:1011000040EA0470706001203866FFF771FC044605
:1011100030688001ADD4FFF76BFC001B02284FF054
:101120000300F5D925E700BFFFF762FC054641F251
:10113000883700BF306F800708D5FFF759FC401B88
:10114000B8424FF00300F5D913E700BFB8F1000F24
:101150003FF571AE306C20F0805030646BE600BF1C
:10116000FFF746FC054600BF306880037FF536AECA
:10117000FFF73EFC401B64284FF00300F4D9F8E66B
:10118000411E0020B0EB116F1CBF012070474EF2D2
:101190001002CEF2000251604EF62351CEF2000151
:1011A000F0230B70072190601160704790F83C208D
:1011B000012A4FF0020254D010B580F83D20026899
:1011C000D2F804E0D2F808C00C682EF07003234374
:1011D00041F2FF74C4F20004A24253600EDC40F2FC
:1011E000FF73C4F200039A4216DCB2F1804F2BD099
:1011F00040F20043C4F2000324E000BF40F2FF339A
:10120000C4F201039A4213DC41F60003C4F2000366
:101210009A4219D0002313E040F60003C4F2000301
:101220009A4211D040F60043C4F200030AE000BF26
:1012300044F20003C4F201039A4205D040F2004395
:10124000C4F201039A4204D149682CF08003194387
:1012500091600121002280F83D1080F83C20BDE81B
:101260001040104670470000002804BF012070475E
:1012700010B5044690F83D0028B9002084F83C00E1
:10128000204600F01FF8022084F83D002068211D50
:1012900000F0FCF9012084F8460084F83E0084F850
:1012A0003F0084F8400084F8410084F8420084F84C
:1012B000430084F8440084F8450084F83D00002091
:1012C00010BD000000680021C4F20101884218BF6F
:1012D000704781B00020009043F64400C4F2020041
:1012E000016841F001010160006800F00100009018
:1012F000009801B07047000090F83C20012A4FF0A0
:1013000002026CD080B580F83D20D0F800C04FF6C6
:101310007772DCF8083023EA0202CCF808200B6868
:101320004F2B29DC1F2B45DD202B46D0302B44D002
:10133000402B40F0AF80D1F804E0C968DCF82030E1
:10134000DCF8202022F00102CCF82020DCF8182064
:1013500022F0F00242EA011123F00A0242EA0E02F0
:10136000CCF81810CCF82020DCF8081041F0470128
:1013700021F0300128E000BF6F2B33DDB3F5005FB3
:1013800074D0B3F5805F21D0702B40F08380D1E919
:1013900001E3C968DCF8082043EA0E0322F47F4227
:1013A00043EA01211143CCF80810DCF8081041F0A1
:1013B000770109E00BB1102B6CD1DCF8081021F09B
:1013C0007001194341F00701CCF8081000220121F7
:1013D00080F83D10002180F83C10BDE880401046A8
:1013E000704700BF502B21D0602B53D1D1F804E0BF
:1013F000C968DCF82030DCF8202022F01002CCF89C
:101400002020DCF8182022F4704242EA013123F057
:10141000A00242EA0E12CCF81810CCF82020DCF81A
:10142000081041F0670121F01001CDE7D1F804E088
:10143000C968DCF82030DCF8202022F00102CCF86A
:101440002020DCF8182022F0F00242EA011123F0FB
:101450000A0242EA0E02CCF81810CCF82020DCF880
:10146000081041F0570121F02001ADE7D1E901E377
:10147000C968DCF8082043EA0E0322F47F4243EAFD
:1014800001211143CCF80810DCF8081041F4804128
:101490009AE700BF01229AE7002804BF01207047A5
:1014A00010B5044690F8410028B9002084F84000A7
:1014B000204600F021F8242084F841002068C1680B
:1014C00021F40051C160204600F082F920680169D2
:1014D00021F490410161416921F02A014161C16813
:1014E00041F40051C16000202021606484F8411063
:1014F00084F84210606310BD80B586B044F20041AC
:101500000068C4F20001002288420592CDE903225E
:101510000292019202D006B080BD00BF43F63000B7
:101520000092C4F20200036943F4003303610369CB
:1015300003F400330093009B0092036843F001031F
:101540000360006800F00100009000980C200190FA
:101550000220CDE90202032004900720059001F546
:10156000DE3001A9FFF76EF906B080BDFEE700008E
:1015700010B52DED028B9FED238A18B10446FFF7BD
:10158000AFF828B1B0EE480ABDEC028B10BD00BF29
:1015900020464FF0FF31FFF767F818B19FED198A29
:1015A00027E000BF2046FEF777FF00EE100A9FED10
:1015B000161AB8EE400A9FED152A20EE010A80EEB9
:1015C000020A9FED131A9FED0F8AB7EE002AB5EEBF
:1015D000400AF1EE10FAB8BFB0EE480A20EE010A58
:1015E0009FED0C1AB4EE410AF1EE10FAA8BFB0EE6E
:1015F000428A2046FFF70AF9B0EE480ABDEC028B9A
:1016000010BD00BF000000003333534000F07F45A1
:101610000000C84200009643FEE70000FEE700001D
:101620007047000080B586B0012202920022002897
:101630000191CDE90322059218BF002902D106B01D
:1016400080BD00BF01A9FFF7FDF806B080BD000016
:1016500000281ABF002900227047FFF7C3B9000015
:1016600000281ABF002901227047FFF7BBB900000C
:1016700070470000FFF7C2B94EF68850CEF2000066
:10168000016841F4700101607047000010B540F638
:10169000FF3E0368C4F2000E40F2004C7045C4F2F5
:1016A000010C25DCB0F1804F2FD040F20042C4F293
:1016B0000002904229D040F60002C4F2000290429B
:1016C00023D041F6FF72C4F20002904227DC70453D
:1016D0003ADCB0F1804F5BD040F20042C4F200022D
:1016E000904255D040F60002C4F200024EE000BF26
:1016F00040F60042C4F20002904206D0604504D099
:101700000022C4F201029042DBD14A6823F0700348
:10171000134341F6FF72C4F200029042D7DD43F654
:10172000FF72C4F20102904220DC42F20002C4F2D5
:10173000000290422CD00022C4F20102904227D035
:10174000604525D028E000BF40F60042C4F2000208
:1017500090421DD041F60002C4F20002904217D020
:1017600041F60042C4F2000210E000BF44F2000261
:10177000C4F2010290420BD044F60002C4F201020E
:10178000904205D044F20042C4F20102904203D1DB
:10179000CA6823F44073134323F080024B69D1F8E5
:1017A00000E08C681A430260C46240F48062C0F8B2
:1017B00028E0624504BF09690163012141610169B3
:1017C000C90708BF10BD016921F00101016110BD09
:1017D000B0B50446006804F108030ECB056919434F
:1017E00025F440552A4302616269E3691143C268E6
:1017F000194349F20C639A431143C1604169A269DC
:1018000021F4407141F20043114340F48062C4F27C
:1018100001039A42416103D1FFF75EFA02E000BF83
:10182000FFF746FAE1694FF69C7563681922C0F626
:10183000FF75B1F5004FA0FB02011FD15A00DB0F6D
:10184000FEF7DCFC48F21F51C5F2EB11A0FB0123AF
:101850005A0905F1805302FB0300322303EBC00059
:10186000A0FB01014FF4F87000EA111000EB021028
:10187000C1F34211084421688860B0BD9A009B0FF3
:10188000FEF7BCFC48F21F51C5F2EB11A0FB01238F
:101890005A0902FB0500322303EB0010A0FB0101F3
:1018A000F02000EA511000EB0210C1F3431108448C
:1018B00021688860B0BD0000FEE7000094B040F2EF
:1018C0000044C4F20204FFF7A7F8A4F58065284697
:1018D0000421FEF70FFD20464FF480514FF480594C
:1018E000FFF7A0FE0DF11C0A50463421FEF7BEFCA6
:1018F0004FF0000843F63006CDF81880CDE9048893
:10190000CDE90288CDF80480C4F2020630690127CF
:1019100040F080503061306900F0805001900198B3
:1019200046F60040CDF80480CFF6FE70215867F3EC
:101930008F312150205800F440400190019802203E
:10194000079010200B9050460A97CDF83480FFF78F
:1019500029FA0F20CDE9020802A80021CDE9048967
:10196000CDF81890FFF7F2F8CDF82C80CDE9098872
:10197000CDE90788CDF808803068602140F0040088
:1019800030603068002200F0040002900298CDF828
:101990000880306840F080003060306800F08000DF
:1019A00002900298CDF80880306840F00100306065
:1019B000306800F0010002900298CDF8088030688D
:1019C00040F0020030603068602600F002000290B3
:1019D00002982846FFF706F820464FF4805100226F
:1019E000FFF700F807A880E8C00107AE2846314697
:1019F000CDF82880FEF726FF20463146CDE907972F
:101A0000CDE90988FEF71EFF40F21006A4F56440F8
:101A1000C2F200060121C0F60071C6E90008304696
:101A2000CDF8288086F8188086F82080C6E90A1844
:101A3000F76186F83080C6E90288C6E90487FEF7B8
:101A40002FFD072007A981E8810107A93046FEF78D
:101A50006BFC40F25807A4F58230C2F200074F2118
:101A60004FF6FF7287E803013846CDF82880CDE9AC
:101A70000888CDE90288C7E90328C7E90588FFF788
:101A8000F3FB07A93846CDF81C90FFF735FC02A9F7
:101A90003846FFF78BFB40F2A00044F20041C2F24F
:101AA0000000C4F200010C234FF4E13280E806018B
:101AB000C0E90388C0E90538C0F81C80FFF7ECFCDA
:101AC0004BF62077C0F2020709E000BF20464FF432
:101AD0008051FFF7BDFD4FF47A70FEF7B1FE30463E
:101AE000FFF746FD28464021B0EE408AFEF718FC7D
:101AF000B5EE408AF1EE10FA08BF0028E6D0204685
:101B00004FF48051FFF7ACFD3846FEF799FE2046B2
:101B10004FF48051FFF79CFD4FF4FA60FEF790FE02
:101B2000D9E702E008C8121F08C1002AFAD170479D
:101B30007047002001E001C1121F002AFBD170474D
:101B4000000000000000000001020304060708096D
:101B50000000000001020304781B000800000020C0
:101B600010000000221B0008881B00081000002045
:101B7000E0040000321B000801000000100000001B
:081B80000024F4000000000045
:04000005080001C529
:00000001FF
